:100000000C9434000C9446000C9446000C9446006A
:100010000C9446000C9446000C9446000C94460048
:100020000C9446000C9446000C9446000C94460038
:100030000C9446000C9446000C9446000C94460028
:100040000C9446000C9446000C9446000C94460018
:100050000C9446000C9446000C9446000C94460008
:100060000C9446000C94460011241FBECFEFD8E03C
:10007000DEBFCDBF21E0A0E0B1E001C01D92A631FE
:10008000B207E1F70E94C1000C9490010C940000AB
:10009000189903C080E090E00895189B07C08FE98D
:1000A0009FE00197F1F700C00000F7CF81E090E0FA
:1000B000089581E090E090930301809302011092F3
:1000C00005011092040162E070E0E3E0F0E040918D
:1000D0000201509103014130510509F051C08FE9EF
:1000E0009FE00197F1F700C000008091040190911A
:1000F00005010196909305018093040120910C0164
:1001000030910D012430310549F488389341F9F6D6
:100110002A98F0930D01E0930C010BC023303105B8
:1001200069F48838934199F62B9870930D01609388
:100130000C011092050110920401C9CF2230310543
:1001400049F48838934119F62C9850930D01409347
:100150000C01EFCF2130310509F0B9CF8838934138
:1001600009F0B5CF2D9810920D0110920C0110924C
:100170000501109204011092030110920201A7CF11
:100180000895259A249A239A229A20982898C4E0C0
:10019000D8E090E1992E04E010E023E0E22EF12C6B
:1001A00032E0C32ED12CAA24A394B12C10920D01BD
:1001B00010920C010E94480090930B0180930A0159
:1001C00080910C0190910D018130910511F42C98D2
:1001D00003C08230910511F42B9802C0039709F4F3
:1001E0002A98109209011092080180E2882E8091CD
:1001F0000A0190910B010197C9F68FE99FE00197E1
:10020000F1F700C00000809108019091090101966A
:100210009093090180930801019721F42D982C985F
:100220002B982A988091080190910901883E23E03B
:10023000920741F410920D0110920C0185B18825AE
:1002400085B925C0803D27E0920711F42D9819C08B
:10025000883B2BE0920789F485B1882585B985B163
:10026000892585B985B18D2785B985B18C2785B953
:10027000B0920D01A0920C01BACF803A2FE0920704
:1002800011F42C981FC0883823E1920721F485B11E
:10029000892585B90FC0803727E1920739F42B985B
:1002A0002A98D0920D01C0920C01A1CF88352BE184
:1002B000920721F485B18D2785B91FC080342FE1C5
:1002C000920711F42B9813C0883223E2920759F455
:1002D00085B18D2785B985B18C2785B9F0920D013F
:1002E000E0920C0184CF803127E2920711F42A9822
:1002F0007ECF883F2AE2920721F485B18C2785B909
:1003000076CF803E9E4209F072CF10930D0100938C
:100310000C010E94590010920B0110920A0167CF44
:04032000F894FFCF7F
:00000001FF
